{
  "contractName": "Flashloan",
  "abi": [
    {
      "inputs": [
        {
          "internalType": "address",
          "name": "kyberAddress",
          "type": "address"
        },
        {
          "internalType": "address",
          "name": "uniswapAddress",
          "type": "address"
        },
        {
          "internalType": "address",
          "name": "wethAddress",
          "type": "address"
        },
        {
          "internalType": "address",
          "name": "daiAddress",
          "type": "address"
        },
        {
          "internalType": "address",
          "name": "beneficiaryAddress",
          "type": "address"
        }
      ],
      "payable": false,
      "stateMutability": "nonpayable",
      "type": "constructor"
    },
    {
      "anonymous": false,
      "inputs": [
        {
          "indexed": false,
          "internalType": "enum Flashloan.Direction",
          "name": "direction",
          "type": "uint8"
        },
        {
          "indexed": false,
          "internalType": "uint256",
          "name": "profit",
          "type": "uint256"
        },
        {
          "indexed": false,
          "internalType": "uint256",
          "name": "date",
          "type": "uint256"
        }
      ],
      "name": "NewArbitrage",
      "type": "event"
    },
    {
      "constant": false,
      "inputs": [
        {
          "internalType": "address",
          "name": "sender",
          "type": "address"
        },
        {
          "components": [
            {
              "internalType": "address",
              "name": "owner",
              "type": "address"
            },
            {
              "internalType": "uint256",
              "name": "number",
              "type": "uint256"
            }
          ],
          "internalType": "struct Account.Info",
          "name": "account",
          "type": "tuple"
        },
        {
          "internalType": "bytes",
          "name": "data",
          "type": "bytes"
        }
      ],
      "name": "callFunction",
      "outputs": [],
      "payable": false,
      "stateMutability": "nonpayable",
      "type": "function"
    },
    {
      "constant": false,
      "inputs": [
        {
          "internalType": "address",
          "name": "_solo",
          "type": "address"
        },
        {
          "internalType": "address",
          "name": "_token",
          "type": "address"
        },
        {
          "internalType": "uint256",
          "name": "_amount",
          "type": "uint256"
        },
        {
          "internalType": "enum Flashloan.Direction",
          "name": "_direction",
          "type": "uint8"
        }
      ],
      "name": "initiateFlashloan",
      "outputs": [],
      "payable": false,
      "stateMutability": "nonpayable",
      "type": "function"
    }
  ],
  "bytecode": "0x60806040523480156200001157600080fd5b506040516200279f3803806200279f83398181016040526200003791908101906200019d565b846000806101000a81548173ffffffffffffffffffffffffffffffffffffffff021916908373ffffffffffffffffffffffffffffffffffffffff16021790555083600160006101000a81548173ffffffffffffffffffffffffffffffffffffffff021916908373ffffffffffffffffffffffffffffffffffffffff16021790555082600260006101000a81548173ffffffffffffffffffffffffffffffffffffffff021916908373ffffffffffffffffffffffffffffffffffffffff16021790555081600360006101000a81548173ffffffffffffffffffffffffffffffffffffffff021916908373ffffffffffffffffffffffffffffffffffffffff16021790555080600460006101000a81548173ffffffffffffffffffffffffffffffffffffffff021916908373ffffffffffffffffffffffffffffffffffffffff16021790555050505050506200026d565b600081519050620001978162000253565b92915050565b600080600080600060a08688031215620001b657600080fd5b6000620001c68882890162000186565b9550506020620001d98882890162000186565b9450506040620001ec8882890162000186565b9350506060620001ff8882890162000186565b9250506080620002128882890162000186565b9150509295509295909350565b60006200022c8262000233565b9050919050565b600073ffffffffffffffffffffffffffffffffffffffff82169050919050565b6200025e816200021f565b81146200026a57600080fd5b50565b612522806200027d6000396000f3fe608060405234801561001057600080fd5b50600436106100365760003560e01c80638b4187131461003b578063c013147614610057575b600080fd5b610055600480360361005091908101906118d1565b610073565b005b610071600480360361006c919081019061186e565b610dc4565b005b61007b6114a6565b8180602001905161008f91908101906119a2565b90506000600360009054906101000a900473ffffffffffffffffffffffffffffffffffffffff1673ffffffffffffffffffffffffffffffffffffffff166370a08231306040518263ffffffff1660e01b81526004016100ee9190611ef5565b60206040518083038186803b15801561010657600080fd5b505afa15801561011a573d6000803e3d6000fd5b505050506040513d601f19601f8201168201806040525061013e91908101906119cb565b90508160200151811015610187576040517f08c379a000000000000000000000000000000000000000000000000000000000815260040161017e9061205e565b60405180910390fd5b6000600181111561019457fe5b826000015160018111156101a457fe5b14156106d257600360009054906101000a900473ffffffffffffffffffffffffffffffffffffffff1673ffffffffffffffffffffffffffffffffffffffff1663095ea7b3600160009054906101000a900473ffffffffffffffffffffffffffffffffffffffff16836040518363ffffffff1660e01b8152600401610229929190611f10565b602060405180830381600087803b15801561024357600080fd5b505af1158015610257573d6000803e3d6000fd5b505050506040513d601f19601f8201168201806040525061027b9190810190611979565b5060008060009054906101000a900473ffffffffffffffffffffffffffffffffffffffff1673ffffffffffffffffffffffffffffffffffffffff1663809a9e55600360009054906101000a900473ffffffffffffffffffffffffffffffffffffffff1673eeeeeeeeeeeeeeeeeeeeeeeeeeeeeeeeeeeeeeee856040518463ffffffff1660e01b815260040161031293929190611f70565b604080518083038186803b15801561032957600080fd5b505afa15801561033d573d6000803e3d6000fd5b505050506040513d601f19601f8201168201806040525061036191908101906119f4565b5090506000809054906101000a900473ffffffffffffffffffffffffffffffffffffffff1673ffffffffffffffffffffffffffffffffffffffff16633bba21dc600360009054906101000a900473ffffffffffffffffffffffffffffffffffffffff1684846040518463ffffffff1660e01b81526004016103e493929190611fd0565b602060405180830381600087803b1580156103fe57600080fd5b505af1158015610412573d6000803e3d6000fd5b505050506040513d601f19601f8201168201806040525061043691908101906119cb565b50606060026040519080825280602002602001820160405280156104695781602001602082028038833980820191505090505b509050600260009054906101000a900473ffffffffffffffffffffffffffffffffffffffff168160008151811061049c57fe5b602002602001019073ffffffffffffffffffffffffffffffffffffffff16908173ffffffffffffffffffffffffffffffffffffffff1681525050600360009054906101000a900473ffffffffffffffffffffffffffffffffffffffff168160018151811061050657fe5b602002602001019073ffffffffffffffffffffffffffffffffffffffff16908173ffffffffffffffffffffffffffffffffffffffff16815250506060600160009054906101000a900473ffffffffffffffffffffffffffffffffffffffff1673ffffffffffffffffffffffffffffffffffffffff1663d06ca61f60024703846040518363ffffffff1660e01b81526004016105a29291906120d4565b60006040518083038186803b1580156105ba57600080fd5b505afa1580156105ce573d6000803e3d6000fd5b505050506040513d6000823e3d601f19601f820116820180604052506105f79190810190611938565b9050600160009054906101000a900473ffffffffffffffffffffffffffffffffffffffff1673ffffffffffffffffffffffffffffffffffffffff16637ff36ab5600247038360008151811061064857fe5b60200260200101518530426040518663ffffffff1660e01b81526004016106729493929190612104565b6000604051808303818588803b15801561068b57600080fd5b505af115801561069f573d6000803e3d6000fd5b50505050506040513d6000823e3d601f19601f820116820180604052506106c99190810190611938565b50505050610bf6565b600360009054906101000a900473ffffffffffffffffffffffffffffffffffffffff1673ffffffffffffffffffffffffffffffffffffffff1663095ea7b3600160009054906101000a900473ffffffffffffffffffffffffffffffffffffffff16836040518363ffffffff1660e01b8152600401610751929190611f10565b602060405180830381600087803b15801561076b57600080fd5b505af115801561077f573d6000803e3d6000fd5b505050506040513d601f19601f820116820180604052506107a39190810190611979565b50606060026040519080825280602002602001820160405280156107d65781602001602082028038833980820191505090505b509050600360009054906101000a900473ffffffffffffffffffffffffffffffffffffffff168160008151811061080957fe5b602002602001019073ffffffffffffffffffffffffffffffffffffffff16908173ffffffffffffffffffffffffffffffffffffffff1681525050600260009054906101000a900473ffffffffffffffffffffffffffffffffffffffff168160018151811061087357fe5b602002602001019073ffffffffffffffffffffffffffffffffffffffff16908173ffffffffffffffffffffffffffffffffffffffff16815250506060600160009054906101000a900473ffffffffffffffffffffffffffffffffffffffff1673ffffffffffffffffffffffffffffffffffffffff1663d06ca61f84846040518363ffffffff1660e01b815260040161090c9291906120d4565b60006040518083038186803b15801561092457600080fd5b505afa158015610938573d6000803e3d6000fd5b505050506040513d6000823e3d601f19601f820116820180604052506109619190810190611938565b9050600160009054906101000a900473ffffffffffffffffffffffffffffffffffffffff1673ffffffffffffffffffffffffffffffffffffffff166318cbafe584836000815181106109af57fe5b60200260200101518530426040518663ffffffff1660e01b81526004016109da959493929190612150565b600060405180830381600087803b1580156109f457600080fd5b505af1158015610a08573d6000803e3d6000fd5b505050506040513d6000823e3d601f19601f82011682018060405250610a319190810190611938565b5060008060009054906101000a900473ffffffffffffffffffffffffffffffffffffffff1673ffffffffffffffffffffffffffffffffffffffff1663809a9e5573eeeeeeeeeeeeeeeeeeeeeeeeeeeeeeeeeeeeeeee600360009054906101000a900473ffffffffffffffffffffffffffffffffffffffff16600247036040518463ffffffff1660e01b8152600401610acb93929190611f70565b604080518083038186803b158015610ae257600080fd5b505afa158015610af6573d6000803e3d6000fd5b505050506040513d601f19601f82011682018060405250610b1a91908101906119f4565b5090506000809054906101000a900473ffffffffffffffffffffffffffffffffffffffff1673ffffffffffffffffffffffffffffffffffffffff16637a2a045660024703600360009054906101000a900473ffffffffffffffffffffffffffffffffffffffff16846040518463ffffffff1660e01b8152600401610b9f929190611fa7565b6020604051808303818588803b158015610bb857600080fd5b505af1158015610bcc573d6000803e3d6000fd5b50505050506040513d601f19601f82011682018060405250610bf191908101906119cb565b505050505b60008260200151600360009054906101000a900473ffffffffffffffffffffffffffffffffffffffff1673ffffffffffffffffffffffffffffffffffffffff166370a08231306040518263ffffffff1660e01b8152600401610c589190611ef5565b60206040518083038186803b158015610c7057600080fd5b505afa158015610c84573d6000803e3d6000fd5b505050506040513d601f19601f82011682018060405250610ca891908101906119cb565b039050600360009054906101000a900473ffffffffffffffffffffffffffffffffffffffff1673ffffffffffffffffffffffffffffffffffffffff1663a9059cbb600460009054906101000a900473ffffffffffffffffffffffffffffffffffffffff16836040518363ffffffff1660e01b8152600401610d2a929190611f10565b602060405180830381600087803b158015610d4457600080fd5b505af1158015610d58573d6000803e3d6000fd5b505050506040513d601f19601f82011682018060405250610d7c9190810190611979565b507fa89b78c8d1240154beaf4b865d2d7cb794ac0f358c618aef3de102cf4a4ee42d83600001518242604051610db493929190612007565b60405180910390a1505050505050565b60008490506000610dd5868661102d565b90506000610de2856111df565b90508573ffffffffffffffffffffffffffffffffffffffff1663095ea7b388836040518363ffffffff1660e01b8152600401610e1f929190611f10565b602060405180830381600087803b158015610e3957600080fd5b505af1158015610e4d573d6000803e3d6000fd5b505050506040513d601f19601f82011682018060405250610e719190810190611979565b5060606003604051908082528060200260200182016040528015610eaf57816020015b610e9c6114cb565b815260200190600190039081610e945790505b509050610ebc83876111fc565b81600081518110610ec957fe5b6020026020010181905250610f1b6040518060400160405280876001811115610eee57fe5b815260200184815250604051602001610f07919061209e565b6040516020818303038152906040526112b5565b81600181518110610f2857fe5b6020026020010181905250610f3d838361135f565b81600281518110610f4a57fe5b602002602001018190525060606001604051908082528060200260200182016040528015610f9257816020015b610f7f611537565b815260200190600190039081610f775790505b509050610f9d611418565b81600081518110610faa57fe5b60200260200101819052508473ffffffffffffffffffffffffffffffffffffffff1663a67a6a4582846040518363ffffffff1660e01b8152600401610ff0929190611f39565b600060405180830381600087803b15801561100a57600080fd5b505af115801561101e573d6000803e3d6000fd5b50505050505050505050505050565b60008083905060008173ffffffffffffffffffffffffffffffffffffffff1663295c39a56040518163ffffffff1660e01b815260040160206040518083038186803b15801561107b57600080fd5b505afa15801561108f573d6000803e3d6000fd5b505050506040513d601f19601f820116820180604052506110b391908101906119cb565b9050600080600090505b8281101561119d578373ffffffffffffffffffffffffffffffffffffffff1663062bd3e9826040518263ffffffff1660e01b81526004016110fe91906120b9565b60206040518083038186803b15801561111657600080fd5b505afa15801561112a573d6000803e3d6000fd5b505050506040513d601f19601f8201168201806040525061114e9190810190611845565b91508573ffffffffffffffffffffffffffffffffffffffff168273ffffffffffffffffffffffffffffffffffffffff16141561119057809450505050506111d9565b80806001019150506110bd565b506040517f08c379a00000000000000000000000000000000000000000000000000000000081526004016111d09061207e565b60405180910390fd5b92915050565b60006111f560028361145190919063ffffffff16565b9050919050565b611204611567565b6040518061010001604052806001600881111561121d57fe5b81526020016000815260200160405180608001604052806000151581526020016000600181111561124a57fe5b81526020016000600181111561125c57fe5b8152602001858152508152602001848152602001600081526020013073ffffffffffffffffffffffffffffffffffffffff1681526020016000815260200160405180602001604052806000815250815250905092915050565b6112bd611567565b6040518061010001604052806008808111156112d557fe5b81526020016000815260200160405180608001604052806000151581526020016000600181111561130257fe5b81526020016000600181111561131457fe5b81526020016000815250815260200160008152602001600081526020013073ffffffffffffffffffffffffffffffffffffffff16815260200160008152602001838152509050919050565b611367611567565b6040518061010001604052806000600881111561138057fe5b8152602001600081526020016040518060800160405280600115158152602001600060018111156113ad57fe5b8152602001600060018111156113bf57fe5b8152602001858152508152602001848152602001600081526020013073ffffffffffffffffffffffffffffffffffffffff1681526020016000815260200160405180602001604052806000815250815250905092915050565b6114206115d3565b60405180604001604052803073ffffffffffffffffffffffffffffffffffffffff1681526020016001815250905090565b60008082840190508381101561149c576040517f08c379a00000000000000000000000000000000000000000000000000000000081526004016114939061203e565b60405180910390fd5b8091505092915050565b6040518060400160405280600060018111156114be57fe5b8152602001600081525090565b604051806101000160405280600060088111156114e457fe5b8152602001600081526020016114f8611603565b81526020016000815260200160008152602001600073ffffffffffffffffffffffffffffffffffffffff16815260200160008152602001606081525090565b6040518060400160405280600073ffffffffffffffffffffffffffffffffffffffff168152602001600081525090565b6040518061010001604052806000600881111561158057fe5b815260200160008152602001611594611603565b81526020016000815260200160008152602001600073ffffffffffffffffffffffffffffffffffffffff16815260200160008152602001606081525090565b6040518060400160405280600073ffffffffffffffffffffffffffffffffffffffff168152602001600081525090565b60405180608001604052806000151581526020016000600181111561162457fe5b81526020016000600181111561163657fe5b8152602001600081525090565b6000813590506116528161248a565b92915050565b6000815190506116678161248a565b92915050565b600082601f83011261167e57600080fd5b815161169161168c826121d7565b6121aa565b915081818352602084019350602081019050838560208402820111156116b657600080fd5b60005b838110156116e657816116cc8882611830565b8452602084019350602083019250506001810190506116b9565b5050505092915050565b6000815190506116ff816124a1565b92915050565b600082601f83011261171657600080fd5b8135611729611724826121ff565b6121aa565b9150808252602083016020830185838301111561174557600080fd5b611750838284612403565b50505092915050565b600081359050611768816124b8565b92915050565b60008151905061177d816124b8565b92915050565b60006040828403121561179557600080fd5b61179f60406121aa565b905060006117af8482850161176e565b60008301525060206117c384828501611830565b60208301525092915050565b6000604082840312156117e157600080fd5b6117eb60406121aa565b905060006117fb84828501611643565b600083015250602061180f8482850161181b565b60208301525092915050565b60008135905061182a816124c8565b92915050565b60008151905061183f816124c8565b92915050565b60006020828403121561185757600080fd5b600061186584828501611658565b91505092915050565b6000806000806080858703121561188457600080fd5b600061189287828801611643565b94505060206118a387828801611643565b93505060406118b48782880161181b565b92505060606118c587828801611759565b91505092959194509250565b6000806000608084860312156118e657600080fd5b60006118f486828701611643565b9350506020611905868287016117cf565b925050606084013567ffffffffffffffff81111561192257600080fd5b61192e86828701611705565b9150509250925092565b60006020828403121561194a57600080fd5b600082015167ffffffffffffffff81111561196457600080fd5b6119708482850161166d565b91505092915050565b60006020828403121561198b57600080fd5b6000611999848285016116f0565b91505092915050565b6000604082840312156119b457600080fd5b60006119c284828501611783565b91505092915050565b6000602082840312156119dd57600080fd5b60006119eb84828501611830565b91505092915050565b60008060408385031215611a0757600080fd5b6000611a1585828601611830565b9250506020611a2685828601611830565b9150509250929050565b6000611a3c8383611a74565b60208301905092915050565b6000611a548383611d71565b905092915050565b6000611a688383611ea8565b60408301905092915050565b611a7d81612303565b82525050565b611a8c81612303565b82525050565b6000611a9d8261225b565b611aa781856122ae565b9350611ab28361222b565b8060005b83811015611ae3578151611aca8882611a30565b9750611ad583612287565b925050600181019050611ab6565b5085935050505092915050565b6000611afb82612266565b611b0581856122bf565b935083602082028501611b178561223b565b8060005b85811015611b535784840389528151611b348582611a48565b9450611b3f83612294565b925060208a01995050600181019050611b1b565b50829750879550505050505092915050565b6000611b7082612271565b611b7a81856122d0565b9350611b858361224b565b8060005b83811015611bb6578151611b9d8882611a5c565b9750611ba8836122a1565b925050600181019050611b89565b5085935050505092915050565b611bcc81612315565b82525050565b6000611bdd8261227c565b611be781856122e1565b9350611bf7818560208601612412565b611c0081612445565b840191505092915050565b611c1481612397565b82525050565b611c23816123bb565b82525050565b611c32816123cd565b82525050565b611c41816123df565b82525050565b611c50816123f1565b82525050565b611c5f816123f1565b82525050565b6000611c72601b836122f2565b91507f536166654d6174683a206164646974696f6e206f766572666c6f7700000000006000830152602082019050919050565b6000611cb26024836122f2565b91507f4e6f7420656e6f7567682066756e647320746f2072657061792064796478206c60008301527f6f616e21000000000000000000000000000000000000000000000000000000006020830152604082019050919050565b6000611d186024836122f2565b91507f4e6f206d61726b6574496420666f756e6420666f722070726f7669646564207460008301527f6f6b656e000000000000000000000000000000000000000000000000000000006020830152604082019050919050565b600061016083016000830151611d8a6000860182611c1a565b506020830151611d9d6020860182611ed7565b506040830151611db06040860182611e53565b506060830151611dc360c0860182611ed7565b506080830151611dd660e0860182611ed7565b5060a0830151611dea610100860182611a74565b5060c0830151611dfe610120860182611ed7565b5060e0830151848203610140860152611e178282611bd2565b9150508091505092915050565b604082016000820151611e3a6000850182611c47565b506020820151611e4d6020850182611ed7565b50505050565b608082016000820151611e696000850182611bc3565b506020820151611e7c6020850182611c29565b506040820151611e8f6040850182611c38565b506060820151611ea26060850182611ed7565b50505050565b604082016000820151611ebe6000850182611a74565b506020820151611ed16020850182611ed7565b50505050565b611ee08161238d565b82525050565b611eef8161238d565b82525050565b6000602082019050611f0a6000830184611a83565b92915050565b6000604082019050611f256000830185611a83565b611f326020830184611ee6565b9392505050565b60006040820190508181036000830152611f538185611b65565b90508181036020830152611f678184611af0565b90509392505050565b6000606082019050611f856000830186611c0b565b611f926020830185611c0b565b611f9f6040830184611ee6565b949350505050565b6000604082019050611fbc6000830185611c0b565b611fc96020830184611ee6565b9392505050565b6000606082019050611fe56000830186611c0b565b611ff26020830185611ee6565b611fff6040830184611ee6565b949350505050565b600060608201905061201c6000830186611c56565b6120296020830185611ee6565b6120366040830184611ee6565b949350505050565b6000602082019050818103600083015261205781611c65565b9050919050565b6000602082019050818103600083015261207781611ca5565b9050919050565b6000602082019050818103600083015261209781611d0b565b9050919050565b60006040820190506120b36000830184611e24565b92915050565b60006020820190506120ce6000830184611ee6565b92915050565b60006040820190506120e96000830185611ee6565b81810360208301526120fb8184611a92565b90509392505050565b60006080820190506121196000830187611ee6565b818103602083015261212b8186611a92565b905061213a6040830185611a83565b6121476060830184611ee6565b95945050505050565b600060a0820190506121656000830188611ee6565b6121726020830187611ee6565b81810360408301526121848186611a92565b90506121936060830185611a83565b6121a06080830184611ee6565b9695505050505050565b6000604051905081810181811067ffffffffffffffff821117156121cd57600080fd5b8060405250919050565b600067ffffffffffffffff8211156121ee57600080fd5b602082029050602081019050919050565b600067ffffffffffffffff82111561221657600080fd5b601f19601f8301169050602081019050919050565b6000819050602082019050919050565b6000819050602082019050919050565b6000819050602082019050919050565b600081519050919050565b600081519050919050565b600081519050919050565b600081519050919050565b6000602082019050919050565b6000602082019050919050565b6000602082019050919050565b600082825260208201905092915050565b600082825260208201905092915050565b600082825260208201905092915050565b600082825260208201905092915050565b600082825260208201905092915050565b600061230e8261236d565b9050919050565b60008115159050919050565b600081905061232f82612456565b919050565b600081905061234282612463565b919050565b600081905061235582612470565b919050565b60008190506123688261247d565b919050565b600073ffffffffffffffffffffffffffffffffffffffff82169050919050565b6000819050919050565b60006123a2826123a9565b9050919050565b60006123b48261236d565b9050919050565b60006123c682612321565b9050919050565b60006123d882612334565b9050919050565b60006123ea82612347565b9050919050565b60006123fc8261235a565b9050919050565b82818337600083830152505050565b60005b83811015612430578082015181840152602081019050612415565b8381111561243f576000848401525b50505050565b6000601f19601f8301169050919050565b6009811061246057fe5b50565b6002811061246d57fe5b50565b6002811061247a57fe5b50565b6002811061248757fe5b50565b61249381612303565b811461249e57600080fd5b50565b6124aa81612315565b81146124b557600080fd5b50565b600281106124c557600080fd5b50565b6124d18161238d565b81146124dc57600080fd5b5056fea365627a7a7231582041e8559f440b3d75693fc1b03beda017b8d6b59f154eb5b5035caeb1fbe565156c6578706572696d656e74616cf564736f6c63430005100040",
  "source": "pragma solidity ^0.5.0;\r\npragma experimental ABIEncoderV2;\r\n\r\nimport \"@studydefi/money-legos/dydx/contracts/DydxFlashloanBase.sol\";\r\nimport \"@studydefi/money-legos/dydx/contracts/ICallee.sol\";\r\nimport { KyberNetworkProxy as IKyberNetworkProxy } from '@studydefi/money-legos/kyber/contracts/KyberNetworkProxy.sol';\r\n\r\nimport \"@openzeppelin/contracts/token/ERC20/IERC20.sol\";\r\nimport './IUniswapV2Router02.sol';\r\nimport './IWeth.sol';\r\n\r\ncontract Flashloan is ICallee, DydxFlashloanBase {\r\n    enum Direction { KyberToUniswap, UniswapToKyber } \r\n    struct ArbInfo {\r\n        Direction direction;\r\n        uint repayAmount;\r\n    }\r\n\r\n    event NewArbitrage (\r\n      Direction direction,\r\n      uint profit,\r\n      uint date\r\n    );\r\n\r\n    IKyberNetworkProxy kyber;\r\n    IUniswapV2Router02 uniswap;\r\n    IWeth weth;\r\n    IERC20 dai;\r\n    address beneficiary;\r\n    address constant KYBER_ETH_ADDRESS = 0xEeeeeEeeeEeEeeEeEeEeeEEEeeeeEeeeeeeeEEeE;\r\n\r\n    constructor(\r\n        address kyberAddress,\r\n        address uniswapAddress,\r\n        address wethAddress,\r\n        address daiAddress,\r\n        address beneficiaryAddress\r\n    ) public {\r\n      kyber = IKyberNetworkProxy(kyberAddress);\r\n      uniswap = IUniswapV2Router02(uniswapAddress);\r\n      weth = IWeth(wethAddress);\r\n      dai = IERC20(daiAddress);\r\n      beneficiary = beneficiaryAddress;\r\n    }\r\n\r\n    // This is the function that will be called postLoan\r\n    // i.e. Encode the logic to handle your flashloaned funds here\r\n    function callFunction(\r\n        address sender,\r\n        Account.Info memory account,\r\n        bytes memory data\r\n    ) public {\r\n        ArbInfo memory arbInfo = abi.decode(data, (ArbInfo));\r\n        uint256 balanceDai = dai.balanceOf(address(this));\r\n\r\n        // Note that you can ignore the line below\r\n        // if your dydx account (this contract in this case)\r\n        // has deposited at least ~2 Wei of assets into the account\r\n        // to balance out the collaterization ratio\r\n        require(\r\n            balanceDai >= arbInfo.repayAmount,\r\n            \"Not enough funds to repay dydx loan!\"\r\n        );\r\n\r\n        if(arbInfo.direction == Direction.KyberToUniswap) {\r\n          //Buy ETH on Kyber\r\n          dai.approve(address(uniswap), balanceDai); \r\n          (uint expectedRate, ) = kyber.getExpectedRate(\r\n            dai, \r\n            IERC20(KYBER_ETH_ADDRESS), \r\n            balanceDai\r\n          );\r\n          kyber.swapTokenToEther(dai, balanceDai, expectedRate);\r\n\r\n          //Sell ETH on Uniswap\r\n          address[] memory path = new address[](2);\r\n          path[0] = address(weth);\r\n          path[1] = address(dai);\r\n          uint[] memory minOuts = uniswap.getAmountsOut(address(this).balance - 2, path); \r\n          uniswap.swapExactETHForTokens.value(address(this).balance - 2)(\r\n            minOuts[0], \r\n            path, \r\n            address(this), \r\n            now\r\n          );\r\n        } else {\r\n          //Buy ETH on Uniswap\r\n          dai.approve(address(uniswap), balanceDai); \r\n          address[] memory path = new address[](2);\r\n          path[0] = address(dai);\r\n          path[1] = address(weth);\r\n          uint[] memory minOuts = uniswap.getAmountsOut(balanceDai, path); \r\n          uniswap.swapExactTokensForETH(\r\n            balanceDai, \r\n            minOuts[0], \r\n            path, \r\n            address(this), \r\n            now\r\n          );\r\n\r\n          //Sell ETH on Kyber\r\n          (uint expectedRate, ) = kyber.getExpectedRate(\r\n            IERC20(KYBER_ETH_ADDRESS), \r\n            dai, \r\n            address(this).balance - 2\r\n          );\r\n          kyber.swapEtherToToken.value(address(this).balance - 2)(\r\n            dai, \r\n            expectedRate\r\n          );\r\n        }\r\n        uint profit = dai.balanceOf(address(this)) - arbInfo.repayAmount; \r\n        dai.transfer(beneficiary, profit);\r\n        emit NewArbitrage(arbInfo.direction, profit, now);\r\n    }\r\n\r\n    function initiateFlashloan(\r\n      address _solo, \r\n      address _token, \r\n      uint256 _amount, \r\n      Direction _direction)\r\n        external\r\n    {\r\n        ISoloMargin solo = ISoloMargin(_solo);\r\n\r\n        // Get marketId from token address\r\n        uint256 marketId = _getMarketIdFromTokenAddress(_solo, _token);\r\n\r\n        // Calculate repay amount (_amount + (2 wei))\r\n        // Approve transfer from\r\n        uint256 repayAmount = _getRepaymentAmountInternal(_amount);\r\n        IERC20(_token).approve(_solo, repayAmount);\r\n\r\n        // 1. Withdraw $\r\n        // 2. Call callFunction(...)\r\n        // 3. Deposit back $\r\n        Actions.ActionArgs[] memory operations = new Actions.ActionArgs[](3);\r\n\r\n        operations[0] = _getWithdrawAction(marketId, _amount);\r\n        operations[1] = _getCallAction(\r\n            // Encode MyCustomData for callFunction\r\n            abi.encode(ArbInfo({direction: _direction, repayAmount: repayAmount}))\r\n        );\r\n        operations[2] = _getDepositAction(marketId, repayAmount);\r\n\r\n        Account.Info[] memory accountInfos = new Account.Info[](1);\r\n        accountInfos[0] = _getAccountInfo();\r\n\r\n        solo.operate(accountInfos, operations);\r\n    }\r\n}",
  "sourcePath": "C:\\Users\\NIRANJANA\\eattheblocks\\profitable-flashloans\\PROFITABLE-FLASHLOAN\\contracts\\Flashloan.sol",
  "compiler": {
    "name": "solc",
    "version": "0.5.16+commit.9c3226ce.Emscripten.clang"
  },
  "schemaVersion": "3.2.0",
  "updatedAt": "2020-07-12T05:33:51.179Z",
  "devdoc": {
    "methods": {}
  },
  "userdoc": {
    "methods": {}
  }
}